{
    "_format": "hh-sol-artifact-1",
    "contractName": "MultiSigWallet",
    "sourceName": "contracts/multisigwallet.sol",
    "abi": [
        {
            "inputs": [
                {
                    "internalType": "address[]",
                    "name": "_owners",
                    "type": "address[]"
                },
                {
                    "internalType": "uint256",
                    "name": "_numConfirmationsRequired",
                    "type": "uint256"
                }
            ],
            "stateMutability": "nonpayable",
            "type": "constructor"
        },
        {
            "anonymous": false,
            "inputs": [
                {
                    "indexed": true,
                    "internalType": "address",
                    "name": "owner",
                    "type": "address"
                },
                {
                    "indexed": true,
                    "internalType": "uint256",
                    "name": "txIndex",
                    "type": "uint256"
                }
            ],
            "name": "ConfirmTransaction",
            "type": "event"
        },
        {
            "anonymous": false,
            "inputs": [
                {
                    "indexed": true,
                    "internalType": "address",
                    "name": "sender",
                    "type": "address"
                },
                {
                    "indexed": false,
                    "internalType": "uint256",
                    "name": "amount",
                    "type": "uint256"
                },
                {
                    "indexed": false,
                    "internalType": "uint256",
                    "name": "balance",
                    "type": "uint256"
                }
            ],
            "name": "Deposit",
            "type": "event"
        },
        {
            "anonymous": false,
            "inputs": [
                {
                    "indexed": true,
                    "internalType": "address",
                    "name": "owner",
                    "type": "address"
                },
                {
                    "indexed": true,
                    "internalType": "uint256",
                    "name": "txIndex",
                    "type": "uint256"
                }
            ],
            "name": "ExecuteTransaction",
            "type": "event"
        },
        {
            "anonymous": false,
            "inputs": [
                {
                    "indexed": true,
                    "internalType": "address",
                    "name": "owner",
                    "type": "address"
                },
                {
                    "indexed": true,
                    "internalType": "uint256",
                    "name": "txIndex",
                    "type": "uint256"
                }
            ],
            "name": "RevokeConfirmation",
            "type": "event"
        },
        {
            "anonymous": false,
            "inputs": [
                {
                    "indexed": true,
                    "internalType": "address",
                    "name": "owner",
                    "type": "address"
                },
                {
                    "indexed": true,
                    "internalType": "uint256",
                    "name": "txIndex",
                    "type": "uint256"
                },
                {
                    "indexed": true,
                    "internalType": "address",
                    "name": "to",
                    "type": "address"
                },
                {
                    "indexed": false,
                    "internalType": "uint256",
                    "name": "value",
                    "type": "uint256"
                },
                {
                    "indexed": false,
                    "internalType": "bytes",
                    "name": "data",
                    "type": "bytes"
                }
            ],
            "name": "SubmitTransaction",
            "type": "event"
        },
        {
            "inputs": [
                {
                    "internalType": "uint256",
                    "name": "_txIndex",
                    "type": "uint256"
                }
            ],
            "name": "checkConfirmation",
            "outputs": [
                {
                    "internalType": "bool",
                    "name": "",
                    "type": "bool"
                }
            ],
            "stateMutability": "view",
            "type": "function"
        },
        {
            "inputs": [
                {
                    "internalType": "uint256",
                    "name": "_txIndex",
                    "type": "uint256"
                }
            ],
            "name": "confirmTransaction",
            "outputs": [],
            "stateMutability": "nonpayable",
            "type": "function"
        },
        {
            "inputs": [
                {
                    "internalType": "uint256",
                    "name": "_txIndex",
                    "type": "uint256"
                }
            ],
            "name": "executeTransaction",
            "outputs": [],
            "stateMutability": "nonpayable",
            "type": "function"
        },
        {
            "inputs": [],
            "name": "getOwners",
            "outputs": [
                {
                    "internalType": "address[]",
                    "name": "",
                    "type": "address[]"
                }
            ],
            "stateMutability": "view",
            "type": "function"
        },
        {
            "inputs": [
                {
                    "internalType": "uint256",
                    "name": "_txIndex",
                    "type": "uint256"
                }
            ],
            "name": "getTransaction",
            "outputs": [
                {
                    "internalType": "address",
                    "name": "to",
                    "type": "address"
                },
                {
                    "internalType": "uint256",
                    "name": "value",
                    "type": "uint256"
                },
                {
                    "internalType": "bytes",
                    "name": "data",
                    "type": "bytes"
                },
                {
                    "internalType": "bool",
                    "name": "executed",
                    "type": "bool"
                },
                {
                    "internalType": "uint256",
                    "name": "numConfirmations",
                    "type": "uint256"
                }
            ],
            "stateMutability": "view",
            "type": "function"
        },
        {
            "inputs": [],
            "name": "getTransactionCount",
            "outputs": [
                {
                    "internalType": "uint256",
                    "name": "",
                    "type": "uint256"
                }
            ],
            "stateMutability": "view",
            "type": "function"
        },
        {
            "inputs": [
                {
                    "internalType": "uint256",
                    "name": "",
                    "type": "uint256"
                },
                {
                    "internalType": "address",
                    "name": "",
                    "type": "address"
                }
            ],
            "name": "isConfirmed",
            "outputs": [
                {
                    "internalType": "bool",
                    "name": "",
                    "type": "bool"
                }
            ],
            "stateMutability": "view",
            "type": "function"
        },
        {
            "inputs": [
                {
                    "internalType": "address",
                    "name": "",
                    "type": "address"
                }
            ],
            "name": "isOwner",
            "outputs": [
                {
                    "internalType": "bool",
                    "name": "",
                    "type": "bool"
                }
            ],
            "stateMutability": "view",
            "type": "function"
        },
        {
            "inputs": [],
            "name": "numConfirmationsRequired",
            "outputs": [
                {
                    "internalType": "uint256",
                    "name": "",
                    "type": "uint256"
                }
            ],
            "stateMutability": "view",
            "type": "function"
        },
        {
            "inputs": [
                {
                    "internalType": "uint256",
                    "name": "",
                    "type": "uint256"
                }
            ],
            "name": "owners",
            "outputs": [
                {
                    "internalType": "address",
                    "name": "",
                    "type": "address"
                }
            ],
            "stateMutability": "view",
            "type": "function"
        },
        {
            "inputs": [
                {
                    "internalType": "uint256",
                    "name": "_txIndex",
                    "type": "uint256"
                }
            ],
            "name": "revokeConfirmation",
            "outputs": [],
            "stateMutability": "nonpayable",
            "type": "function"
        },
        {
            "inputs": [
                {
                    "internalType": "address",
                    "name": "_to",
                    "type": "address"
                },
                {
                    "internalType": "uint256",
                    "name": "_value",
                    "type": "uint256"
                },
                {
                    "internalType": "bytes",
                    "name": "_data",
                    "type": "bytes"
                }
            ],
            "name": "submitTransaction",
            "outputs": [],
            "stateMutability": "nonpayable",
            "type": "function"
        },
        {
            "inputs": [
                {
                    "internalType": "uint256",
                    "name": "",
                    "type": "uint256"
                }
            ],
            "name": "transactions",
            "outputs": [
                {
                    "internalType": "address",
                    "name": "to",
                    "type": "address"
                },
                {
                    "internalType": "uint256",
                    "name": "value",
                    "type": "uint256"
                },
                {
                    "internalType": "bytes",
                    "name": "data",
                    "type": "bytes"
                },
                {
                    "internalType": "bool",
                    "name": "executed",
                    "type": "bool"
                },
                {
                    "internalType": "uint256",
                    "name": "numConfirmations",
                    "type": "uint256"
                }
            ],
            "stateMutability": "view",
            "type": "function"
        },
        {
            "stateMutability": "payable",
            "type": "receive"
        }
    ],
    "bytecode": "0x60806040523480156200001157600080fd5b50604051620025c2380380620025c283398181016040528101906200003791906200050e565b60008251116200007e576040517f08c379a00000000000000000000000000000000000000000000000000000000081526004016200007590620005d5565b60405180910390fd5b60008111801562000090575081518111155b620000d2576040517f08c379a0000000000000000000000000000000000000000000000000000000008152600401620000c9906200066d565b60405180910390fd5b60005b8251811015620002d5576000838281518110620000f757620000f66200068f565b5b60200260200101519050600073ffffffffffffffffffffffffffffffffffffffff168173ffffffffffffffffffffffffffffffffffffffff16141562000174576040517f08c379a00000000000000000000000000000000000000000000000000000000081526004016200016b906200070e565b60405180910390fd5b600160008273ffffffffffffffffffffffffffffffffffffffff1673ffffffffffffffffffffffffffffffffffffffff16815260200190815260200160002060009054906101000a900460ff161562000204576040517f08c379a0000000000000000000000000000000000000000000000000000000008152600401620001fb9062000780565b60405180910390fd5b60018060008373ffffffffffffffffffffffffffffffffffffffff1673ffffffffffffffffffffffffffffffffffffffff16815260200190815260200160002060006101000a81548160ff0219169083151502179055506000819080600181540180825580915050600190039060005260206000200160009091909190916101000a81548173ffffffffffffffffffffffffffffffffffffffff021916908373ffffffffffffffffffffffffffffffffffffffff160217905550508080620002cc90620007d1565b915050620000d5565b508060028190555050506200081f565b6000604051905090565b600080fd5b600080fd5b600080fd5b6000601f19601f8301169050919050565b7f4e487b7100000000000000000000000000000000000000000000000000000000600052604160045260246000fd5b6200034982620002fe565b810181811067ffffffffffffffff821117156200036b576200036a6200030f565b5b80604052505050565b600062000380620002e5565b90506200038e82826200033e565b919050565b600067ffffffffffffffff821115620003b157620003b06200030f565b5b602082029050602081019050919050565b600080fd5b600073ffffffffffffffffffffffffffffffffffffffff82169050919050565b6000620003f482620003c7565b9050919050565b6200040681620003e7565b81146200041257600080fd5b50565b6000815190506200042681620003fb565b92915050565b6000620004436200043d8462000393565b62000374565b90508083825260208201905060208402830185811115620004695762000468620003c2565b5b835b8181101562000496578062000481888262000415565b8452602084019350506020810190506200046b565b5050509392505050565b600082601f830112620004b857620004b7620002f9565b5b8151620004ca8482602086016200042c565b91505092915050565b6000819050919050565b620004e881620004d3565b8114620004f457600080fd5b50565b6000815190506200050881620004dd565b92915050565b60008060408385031215620005285762000527620002ef565b5b600083015167ffffffffffffffff811115620005495762000548620002f4565b5b6200055785828601620004a0565b92505060206200056a85828601620004f7565b9150509250929050565b600082825260208201905092915050565b7f6f776e6572732072657175697265640000000000000000000000000000000000600082015250565b6000620005bd600f8362000574565b9150620005ca8262000585565b602082019050919050565b60006020820190508181036000830152620005f081620005ae565b9050919050565b7f696e76616c6964206e756d626572206f6620726571756972656420636f6e666960008201527f726d6174696f6e73000000000000000000000000000000000000000000000000602082015250565b60006200065560288362000574565b91506200066282620005f7565b604082019050919050565b60006020820190508181036000830152620006888162000646565b9050919050565b7f4e487b7100000000000000000000000000000000000000000000000000000000600052603260045260246000fd5b7f696e76616c6964206f776e657200000000000000000000000000000000000000600082015250565b6000620006f6600d8362000574565b91506200070382620006be565b602082019050919050565b600060208201905081810360008301526200072981620006e7565b9050919050565b7f6f776e6572206e6f7420756e6971756500000000000000000000000000000000600082015250565b60006200076860108362000574565b9150620007758262000730565b602082019050919050565b600060208201905081810360008301526200079b8162000759565b9050919050565b7f4e487b7100000000000000000000000000000000000000000000000000000000600052601160045260246000fd5b6000620007de82620004d3565b91507fffffffffffffffffffffffffffffffffffffffffffffffffffffffffffffffff821415620008145762000813620007a2565b5b600182019050919050565b611d93806200082f6000396000f3fe6080604052600436106100c65760003560e01c806380f59a651161007f578063c01a8c8411610059578063c01a8c8414610317578063c642747414610340578063d0549b8514610369578063ee22610b146103945761011d565b806380f59a651461026e5780639ace38c2146102ab578063a0e67e2b146102ec5761011d565b8063025e7c271461012257806320ea8d861461015f5780632e7700f0146101885780632f54bf6e146101b357806333ea3dc8146101f05780633d7b4047146102315761011d565b3661011d573373ffffffffffffffffffffffffffffffffffffffff167f90890809c654f11d6e72a28fa60149770a0d11ec6c92319d6ceb2bb0a4ea1a1534476040516101139291906112d6565b60405180910390a2005b600080fd5b34801561012e57600080fd5b506101496004803603810190610144919061133f565b6103bd565b60405161015691906113ad565b60405180910390f35b34801561016b57600080fd5b506101866004803603810190610181919061133f565b6103fc565b005b34801561019457600080fd5b5061019d6106d6565b6040516101aa91906113c8565b60405180910390f35b3480156101bf57600080fd5b506101da60048036038101906101d5919061140f565b6106e3565b6040516101e79190611457565b60405180910390f35b3480156101fc57600080fd5b506102176004803603810190610212919061133f565b610703565b60405161022895949392919061150b565b60405180910390f35b34801561023d57600080fd5b506102586004803603810190610253919061133f565b610816565b6040516102659190611457565b60405180910390f35b34801561027a57600080fd5b5061029560048036038101906102909190611565565b61087d565b6040516102a29190611457565b60405180910390f35b3480156102b757600080fd5b506102d260048036038101906102cd919061133f565b6108ac565b6040516102e395949392919061150b565b60405180910390f35b3480156102f857600080fd5b506103016109a7565b60405161030e9190611663565b60405180910390f35b34801561032357600080fd5b5061033e6004803603810190610339919061133f565b610a35565b005b34801561034c57600080fd5b50610367600480360381019061036291906117ba565b610d12565b005b34801561037557600080fd5b5061037e610f1c565b60405161038b91906113c8565b60405180910390f35b3480156103a057600080fd5b506103bb60048036038101906103b6919061133f565b610f22565b005b600081815481106103cd57600080fd5b906000526020600020016000915054906101000a900473ffffffffffffffffffffffffffffffffffffffff1681565b600160003373ffffffffffffffffffffffffffffffffffffffff1673ffffffffffffffffffffffffffffffffffffffff16815260200190815260200160002060009054906101000a900460ff16610488576040517f08c379a000000000000000000000000000000000000000000000000000000000815260040161047f90611886565b60405180910390fd5b8060048054905081106104d0576040517f08c379a00000000000000000000000000000000000000000000000000000000081526004016104c7906118f2565b60405180910390fd5b81600481815481106104e5576104e4611912565b5b906000526020600020906005020160030160009054906101000a900460ff1615610544576040517f08c379a000000000000000000000000000000000000000000000000000000000815260040161053b9061198d565b60405180910390fd5b60006004848154811061055a57610559611912565b5b906000526020600020906005020190506003600085815260200190815260200160002060003373ffffffffffffffffffffffffffffffffffffffff1673ffffffffffffffffffffffffffffffffffffffff16815260200190815260200160002060009054906101000a900460ff16610607576040517f08c379a00000000000000000000000000000000000000000000000000000000081526004016105fe906119f9565b60405180910390fd5b600181600401600082825461061c9190611a48565b9250508190555060006003600086815260200190815260200160002060003373ffffffffffffffffffffffffffffffffffffffff1673ffffffffffffffffffffffffffffffffffffffff16815260200190815260200160002060006101000a81548160ff021916908315150217905550833373ffffffffffffffffffffffffffffffffffffffff167ff0dca620e2e81f7841d07bcc105e1704fb01475b278a9d4c236e1c62945edd5560405160405180910390a350505050565b6000600480549050905090565b60016020528060005260406000206000915054906101000a900460ff1681565b600080606060008060006004878154811061072157610720611912565b5b906000526020600020906005020190508060000160009054906101000a900473ffffffffffffffffffffffffffffffffffffffff168160010154826002018360030160009054906101000a900460ff16846004015482805461078290611aab565b80601f01602080910402602001604051908101604052809291908181526020018280546107ae90611aab565b80156107fb5780601f106107d0576101008083540402835291602001916107fb565b820191906000526020600020905b8154815290600101906020018083116107de57829003601f168201915b50505050509250955095509550955095505091939590929450565b60006003600083815260200190815260200160002060003373ffffffffffffffffffffffffffffffffffffffff1673ffffffffffffffffffffffffffffffffffffffff16815260200190815260200160002060009054906101000a900460ff169050919050565b60036020528160005260406000206020528060005260406000206000915091509054906101000a900460ff1681565b600481815481106108bc57600080fd5b90600052602060002090600502016000915090508060000160009054906101000a900473ffffffffffffffffffffffffffffffffffffffff169080600101549080600201805461090b90611aab565b80601f016020809104026020016040519081016040528092919081815260200182805461093790611aab565b80156109845780601f1061095957610100808354040283529160200191610984565b820191906000526020600020905b81548152906001019060200180831161096757829003601f168201915b5050505050908060030160009054906101000a900460ff16908060040154905085565b60606000805480602002602001604051908101604052809291908181526020018280548015610a2b57602002820191906000526020600020905b8160009054906101000a900473ffffffffffffffffffffffffffffffffffffffff1673ffffffffffffffffffffffffffffffffffffffff16815260200190600101908083116109e1575b5050505050905090565b600160003373ffffffffffffffffffffffffffffffffffffffff1673ffffffffffffffffffffffffffffffffffffffff16815260200190815260200160002060009054906101000a900460ff16610ac1576040517f08c379a0000000000000000000000000000000000000000000000000000000008152600401610ab890611886565b60405180910390fd5b806004805490508110610b09576040517f08c379a0000000000000000000000000000000000000000000000000000000008152600401610b00906118f2565b60405180910390fd5b8160048181548110610b1e57610b1d611912565b5b906000526020600020906005020160030160009054906101000a900460ff1615610b7d576040517f08c379a0000000000000000000000000000000000000000000000000000000008152600401610b749061198d565b60405180910390fd5b826003600082815260200190815260200160002060003373ffffffffffffffffffffffffffffffffffffffff1673ffffffffffffffffffffffffffffffffffffffff16815260200190815260200160002060009054906101000a900460ff1615610c1c576040517f08c379a0000000000000000000000000000000000000000000000000000000008152600401610c1390611b29565b60405180910390fd5b600060048581548110610c3257610c31611912565b5b906000526020600020906005020190506001816004016000828254610c579190611b49565b9250508190555060016003600087815260200190815260200160002060003373ffffffffffffffffffffffffffffffffffffffff1673ffffffffffffffffffffffffffffffffffffffff16815260200190815260200160002060006101000a81548160ff021916908315150217905550843373ffffffffffffffffffffffffffffffffffffffff167f5cbe105e36805f7820e291f799d5794ff948af2a5f664e580382defb6339004160405160405180910390a35050505050565b600160003373ffffffffffffffffffffffffffffffffffffffff1673ffffffffffffffffffffffffffffffffffffffff16815260200190815260200160002060009054906101000a900460ff16610d9e576040517f08c379a0000000000000000000000000000000000000000000000000000000008152600401610d9590611886565b60405180910390fd5b6000600480549050905060046040518060a001604052808673ffffffffffffffffffffffffffffffffffffffff1681526020018581526020018481526020016000151581526020016000815250908060018154018082558091505060019003906000526020600020906005020160009091909190915060008201518160000160006101000a81548173ffffffffffffffffffffffffffffffffffffffff021916908373ffffffffffffffffffffffffffffffffffffffff160217905550602082015181600101556040820151816002019080519060200190610e8192919061121a565b5060608201518160030160006101000a81548160ff0219169083151502179055506080820151816004015550508373ffffffffffffffffffffffffffffffffffffffff16813373ffffffffffffffffffffffffffffffffffffffff167fd5a05bf70715ad82a09a756320284a1b54c9ff74cd0f8cce6219e79b563fe59d8686604051610f0e929190611b9f565b60405180910390a450505050565b60025481565b600160003373ffffffffffffffffffffffffffffffffffffffff1673ffffffffffffffffffffffffffffffffffffffff16815260200190815260200160002060009054906101000a900460ff16610fae576040517f08c379a0000000000000000000000000000000000000000000000000000000008152600401610fa590611886565b60405180910390fd5b806004805490508110610ff6576040517f08c379a0000000000000000000000000000000000000000000000000000000008152600401610fed906118f2565b60405180910390fd5b816004818154811061100b5761100a611912565b5b906000526020600020906005020160030160009054906101000a900460ff161561106a576040517f08c379a00000000000000000000000000000000000000000000000000000000081526004016110619061198d565b60405180910390fd5b6000600484815481106110805761107f611912565b5b90600052602060002090600502019050600254816004015410156110d9576040517f08c379a00000000000000000000000000000000000000000000000000000000081526004016110d090611c1b565b60405180910390fd5b60018160030160006101000a81548160ff02191690831515021790555060008160000160009054906101000a900473ffffffffffffffffffffffffffffffffffffffff1673ffffffffffffffffffffffffffffffffffffffff168260010154836002016040516111499190611cda565b60006040518083038185875af1925050503d8060008114611186576040519150601f19603f3d011682016040523d82523d6000602084013e61118b565b606091505b50509050806111cf576040517f08c379a00000000000000000000000000000000000000000000000000000000081526004016111c690611d3d565b60405180910390fd5b843373ffffffffffffffffffffffffffffffffffffffff167f5445f318f4f5fcfb66592e68e0cc5822aa15664039bd5f0ffde24c5a8142b1ac60405160405180910390a35050505050565b82805461122690611aab565b90600052602060002090601f016020900481019282611248576000855561128f565b82601f1061126157805160ff191683800117855561128f565b8280016001018555821561128f579182015b8281111561128e578251825591602001919060010190611273565b5b50905061129c91906112a0565b5090565b5b808211156112b95760008160009055506001016112a1565b5090565b6000819050919050565b6112d0816112bd565b82525050565b60006040820190506112eb60008301856112c7565b6112f860208301846112c7565b9392505050565b6000604051905090565b600080fd5b600080fd5b61131c816112bd565b811461132757600080fd5b50565b60008135905061133981611313565b92915050565b60006020828403121561135557611354611309565b5b60006113638482850161132a565b91505092915050565b600073ffffffffffffffffffffffffffffffffffffffff82169050919050565b60006113978261136c565b9050919050565b6113a78161138c565b82525050565b60006020820190506113c2600083018461139e565b92915050565b60006020820190506113dd60008301846112c7565b92915050565b6113ec8161138c565b81146113f757600080fd5b50565b600081359050611409816113e3565b92915050565b60006020828403121561142557611424611309565b5b6000611433848285016113fa565b91505092915050565b60008115159050919050565b6114518161143c565b82525050565b600060208201905061146c6000830184611448565b92915050565b600081519050919050565b600082825260208201905092915050565b60005b838110156114ac578082015181840152602081019050611491565b838111156114bb576000848401525b50505050565b6000601f19601f8301169050919050565b60006114dd82611472565b6114e7818561147d565b93506114f781856020860161148e565b611500816114c1565b840191505092915050565b600060a082019050611520600083018861139e565b61152d60208301876112c7565b818103604083015261153f81866114d2565b905061154e6060830185611448565b61155b60808301846112c7565b9695505050505050565b6000806040838503121561157c5761157b611309565b5b600061158a8582860161132a565b925050602061159b858286016113fa565b9150509250929050565b600081519050919050565b600082825260208201905092915050565b6000819050602082019050919050565b6115da8161138c565b82525050565b60006115ec83836115d1565b60208301905092915050565b6000602082019050919050565b6000611610826115a5565b61161a81856115b0565b9350611625836115c1565b8060005b8381101561165657815161163d88826115e0565b9750611648836115f8565b925050600181019050611629565b5085935050505092915050565b6000602082019050818103600083015261167d8184611605565b905092915050565b600080fd5b600080fd5b7f4e487b7100000000000000000000000000000000000000000000000000000000600052604160045260246000fd5b6116c7826114c1565b810181811067ffffffffffffffff821117156116e6576116e561168f565b5b80604052505050565b60006116f96112ff565b905061170582826116be565b919050565b600067ffffffffffffffff8211156117255761172461168f565b5b61172e826114c1565b9050602081019050919050565b82818337600083830152505050565b600061175d6117588461170a565b6116ef565b9050828152602081018484840111156117795761177861168a565b5b61178484828561173b565b509392505050565b600082601f8301126117a1576117a0611685565b5b81356117b184826020860161174a565b91505092915050565b6000806000606084860312156117d3576117d2611309565b5b60006117e1868287016113fa565b93505060206117f28682870161132a565b925050604084013567ffffffffffffffff8111156118135761181261130e565b5b61181f8682870161178c565b9150509250925092565b600082825260208201905092915050565b7f6e6f74206f776e65720000000000000000000000000000000000000000000000600082015250565b6000611870600983611829565b915061187b8261183a565b602082019050919050565b6000602082019050818103600083015261189f81611863565b9050919050565b7f747820646f6573206e6f74206578697374000000000000000000000000000000600082015250565b60006118dc601183611829565b91506118e7826118a6565b602082019050919050565b6000602082019050818103600083015261190b816118cf565b9050919050565b7f4e487b7100000000000000000000000000000000000000000000000000000000600052603260045260246000fd5b7f747820616c726561647920657865637574656400000000000000000000000000600082015250565b6000611977601383611829565b915061198282611941565b602082019050919050565b600060208201905081810360008301526119a68161196a565b9050919050565b7f7478206e6f7420636f6e6669726d656400000000000000000000000000000000600082015250565b60006119e3601083611829565b91506119ee826119ad565b602082019050919050565b60006020820190508181036000830152611a12816119d6565b9050919050565b7f4e487b7100000000000000000000000000000000000000000000000000000000600052601160045260246000fd5b6000611a53826112bd565b9150611a5e836112bd565b925082821015611a7157611a70611a19565b5b828203905092915050565b7f4e487b7100000000000000000000000000000000000000000000000000000000600052602260045260246000fd5b60006002820490506001821680611ac357607f821691505b60208210811415611ad757611ad6611a7c565b5b50919050565b7f747820616c726561647920636f6e6669726d6564000000000000000000000000600082015250565b6000611b13601483611829565b9150611b1e82611add565b602082019050919050565b60006020820190508181036000830152611b4281611b06565b9050919050565b6000611b54826112bd565b9150611b5f836112bd565b9250827fffffffffffffffffffffffffffffffffffffffffffffffffffffffffffffffff03821115611b9457611b93611a19565b5b828201905092915050565b6000604082019050611bb460008301856112c7565b8181036020830152611bc681846114d2565b90509392505050565b7f63616e6e6f742065786563757465207478000000000000000000000000000000600082015250565b6000611c05601183611829565b9150611c1082611bcf565b602082019050919050565b60006020820190508181036000830152611c3481611bf8565b9050919050565b600081905092915050565b60008190508160005260206000209050919050565b60008154611c6881611aab565b611c728186611c3b565b94506001821660008114611c8d5760018114611c9e57611cd1565b60ff19831686528186019350611cd1565b611ca785611c46565b60005b83811015611cc957815481890152600182019150602081019050611caa565b838801955050505b50505092915050565b6000611ce68284611c5b565b915081905092915050565b7f7478206661696c65640000000000000000000000000000000000000000000000600082015250565b6000611d27600983611829565b9150611d3282611cf1565b602082019050919050565b60006020820190508181036000830152611d5681611d1a565b905091905056fea26469706673582212203e92030a2d7ab135836b5104a38e2da8e11126dd43af9d69418be5133c399b6d64736f6c63430008090033",
    "linkReferences": {},
    "deployedLinkReferences": {}
}